:03000000020800F3
:0C080000787FE4F6D8FD758151020847AE
:0309F500014F614E
:1009D000C2AF53890F438920759850758DFA758B76
:0D09E000FA438780D2ACD28ED29CD2AF22D7
:0809ED008F993099FDC2992297
:0A0978008B2A8A2B892C8C2D8D2EE2
:10098200E4FDFCC3ED952EE52D6480F8EC648098BF
:100992005018AB2AAA2BA92C8D828C831208EEFF49
:0A09A2001209ED0DBD00010C80D913
:0109AC002228
:06093D008B2A8A2B892C95
:10094300C29CE4FFFEC3EF9551E5506480F8EE646A
:1009530080985019742F2FF8E6AB2AAA2BA92C8F55
:10096300828E8312091B0FBF00010E80D8E4F5505D
:04097300F551D29CCC
:01097700225D
:030023000209AD22
:1009AD00C0E0C0D075D000C000309810C29805517D
:1009BD00E5517002055014242FF8A699D000D0D01F
:0309CD00D0E03245
:10088C001209D0C3E5519406E5506480948040F37E
:10089C007B007A00790812093DE50AFE7C00E4250C
:1008AC0009F529EC3EF52875083A750C01750D0211
:1008BC00E5295401F50EE5292401FFEF5401F50F4C
:1008CC00E5086509650A650B650C650D650E650F18
:1008DC00F5107511237B007A0079087D0A120978CE
:0208EC0080A1E9
:10080C0002088CE493A3F8E493A34003F68001F26E
:10081C0008DFF48029E493A3F85407240CC8C333ED
:10082C00C4540F4420C8834004F456800146F6DFBC
:10083C00E4800B01020408102040809009F5E47E4E
:10084C00019360BCA3FF543F30E509541FFEE493B1
:10085C00A360010ECF54C025E060A840B8E493A378
:10086C00FAE493A3F8E493A3C8C582C8CAC583CAA3
:10087C00F0A3C8C582C8CAC583CADFE9DEE780BE5B
:0109F80000FE
:1008EE00BB010CE58229F582E5833AF583E02250BF
:1008FE0006E92582F8E622BBFE06E92582F8E22209
:0D090E00E58229F582E5833AF583E4932222
:10091B00F8BB010DE58229F582E5833AF583E8F012
:10092B00225006E92582C8F622BBFE05E92582C8BE
:02093B00F222A6
:00000001FF
